:020000040800F2
:1000000000500020ED060008890600088F06000851
:10001000950600089B060008A106000800000000E5
:10002000000000000000000000000000A70600081B
:10003000B306000800000000BF060008992B000866
:1000400035070008350700083507000835070008A0
:100050003507000835070008350700083507000890
:10006000350700083507000835070008CD060008E9
:100070003507000835070008350700083507000870
:100080003507000835070008350700083507000860
:100090003507000835070008350700083507000850
:1000A0003507000835070008350700083507000840
:1000B0003507000835070008350700083507000830
:1000C0003507000835070008350700083507000820
:1000D0003507000835070008350700083507000810
:1000E0003507000835070008350700080000000044
:1000F0000000000000000000000000000000000000
:0C01000000000000000000005FF808F1A3
:10010C0010B5054C237833B9044B13B10448AFF345
:10011C0000800123237010BD14000020000000009B
:10012C00CC30000808B5034B1BB103490348AFF3AF
:10013C00008008BD0000000018000020CC30000832
:10014C0080B500AF00F0F2FA00F00BF800F03CF9CB
:10015C0000F01CF900F060F800F0CCF802F0E6FCBE
:10016C00FCE780B594B000AF07F1280328220021EA
:10017C00184602F079FF07F1140300221A605A6046
:10018C009A60DA601A613B1D00221A605A609A600C
:10019C00DA600123BB624FF48033FB6200233B63C4
:1001AC000123BB6302237B644FF48033BB644FF4A5
:1001BC00E013FB6407F12803184601F0BBFB034670
:1001CC00002B01D000F09EF90F237B610223BB6151
:1001DC000023FB614FF480633B6200237B6207F1D9
:1001EC0014030221184601F027FE0346002B01D010
:1001FC0000F088F902237B604FF40043FB603B1D49
:10020C00184601F075FF0346002B01D000F07AF977
:10021C0000BF5037BD4680BD80B584B000AF3B1DDC
:10022C0000221A605A609A60304B314A1A602F4B88
:10023C004FF480729A602D4B00221A732B4B0022C4
:10024C001A752A4B4FF46022DA61284B00225A604F
:10025C00264B04221A61254800F0EEFA0346002BC7
:10026C0001D000F04FF901237B600123BB60072311
:10027C00FB603B1D19461D4800F0B0FC0346002BEB
:10028C0001D000F03FF902237B600223BB603B1DD1
:10029C001946164800F0A2FC0346002B01D000F0D2
:1002AC0031F903237B600323BB600023FB603B1D00
:1002BC0019460E4800F092FC0346002B01D000F0CA
:1002CC0021F904237B600423BB600723FB603B1DE7
:1002DC001946064800F082FC0346002B01D000F0C2
:1002EC0011F900BF1037BD4680BD00BF30000020A3
:1002FC000024014080B586B000AF07F1080300224E
:10030C001A605A609A60DA603B4600221A605A60A2
:10031C001D4B4FF080421A601B4B47225A601A4B00
:10032C0000229A60184B6322DA60174B00221A6184
:10033C00154B80229A61144801F090FF0346002B64
:10034C0001D000F0DFF84FF48053BB6007F10803D5
:10035C0019460D4801F0D1FF0346002B01D000F0E7
:10036C00D1F800233B6000237B603B4619460648CE
:10037C0002F08EF90346002B01D000F0C3F800BF49
:10038C001837BD4680BD00BFA400002080B582B0E8
:10039C0000AF0C4B5B690B4A43F001035361094BF3
:1003AC005B6903F001037B607B68002200210B205A
:1003BC0000F0E5FE0B2000F0FEFE00BF0837BD4646
:1003CC0080BD00BF0010024080B588B000AF07F1BF
:1003DC00100300221A605A609A60DA60454B9B69E0
:1003EC00444A43F010039361424B9B6903F01003A2
:1003FC00FB60FB683F4B9B693E4A43F020039361D3
:10040C003C4B9B6903F02003BB60BB68394B9B6979
:10041C00384A43F004039361364B9B6903F00403A1
:10042C007B607B68334B9B69324A43F008039361D2
:10043C00304B9B6903F008033B603B6800224FF490
:10044C0000512D4801F044FA002247F678612B4800
:10045C0001F03EFA00224FF47061294801F038FA9D
:10046C004FF400533B6101237B610023BB610223EA
:10047C00FB6107F1100319461F4801F0A5F84FF472
:10048C0087533B6100237B610023BB6107F11003A1
:10049C0019461B4801F098F802233B6100237B614D
:1004AC000023BB6107F110031946144801F08CF8C6
:1004BC0047F678633B6101237B610023BB61022318
:1004CC00FB6107F1100319460C4801F07DF84FF45D
:1004DC0070633B6101237B610023BB610223FB61E1
:1004EC0007F110031946064801F06EF800BF2037DB
:1004FC00BD4680BD0010024000100140000C0140C0
:10050C000008014080B400AF72B600BFFEE70000E7
:10051C0080B485B000AF154B9B69144A43F00103BE
:10052C009361124B9B6903F00103BB60BB680F4BDB
:10053C00DB690E4A43F08053D3610C4BDB6903F04B
:10054C0080537B607B680A4B5B68FB60FB6823F025
:10055C00E063FB60FB6843F00073FB60044AFB68DC
:10056C00536000BF1437BD4680BC7047001002407A
:10057C000000014080B588B000AF786007F110032F
:10058C0000221A605A609A60DA607B681B68284AFD
:10059C00934249D1274B9B69264A43F400739361DC
:1005AC00244B9B6903F40073FB60FB68214B9B6934
:1005BC00204A43F0040393611E4B9B6903F0040330
:1005CC00BB60BB681E233B6103237B6107F11003F7
:1005DC001946194800F0F8FF184B194A1A60174BC6
:1005EC0000225A60154B00229A60144B8022DA606C
:1005FC00124B4FF480721A61104B4FF480625A61A7
:10060C000E4B20229A610D4B0022DA610B4800F050
:10061C00EDFD0346002B01D0FFF774FF7B68074A02
:10062C001A62064A7B68536200BF2037BD4680BD04
:10063C00002401400010024000080140600000202E
:10064C000800024080B485B000AF78607B681B68FE
:10065C00B3F1804F0BD1084BDB69074A43F0010320
:10066C00D361054BDB6903F00103FB60FB6800BF42
:10067C001437BD4680BC70470010024080B400AFF8
:10068C00FEE780B400AFFEE780B400AFFEE780B4B5
:10069C0000AFFEE780B400AFFEE780B400AF00BF50
:1006AC00BD4680BC704780B400AF00BFBD4680BC67
:1006BC00704780B400AF00BFBD4680BC70470000DF
:1006CC0080B500AF024800F04BFE00BF80BD00BFFC
:1006DC006000002080B400AF00BFBD4680BC7047F6
:1006EC00FFF7F8FF0B480C490C4A002302E0D458E2
:1006FC00C4500433C4188C42F9D3094A094C002362
:10070C0001E013600432A242FBD302F0B5FCFFF708
:10071C0017FD704700000020140000201031000865
:10072C001400002028010020FEE7000080B500AF77
:10073C00084B1B68074A43F010031360032000F0BA
:10074C0013FD0F2000F008F8FFF7E2FE0023184617
:10075C0080BD00BF0020024080B582B000AF786041
:10076C00124B1A68124B1B7819464FF47A73B3FB71
:10077C00F1F3B2FBF3F3184600F02BFD0346002B0C
:10078C0001D001230EE07B680F2B0AD80022796878
:10079C004FF0FF3000F0F3FC064A7B681360002337
:1007AC0000E0012318460837BD4680BD000000203C
:1007BC00080000200400002080B400AF054B1B781B
:1007CC001A46054B1B681344034A136000BFBD4611
:1007DC0080BC704708000020EC00002080B400AF03
:1007EC00024B1B681846BD4680BC7047EC000020CD
:1007FC0080B584B000AF7860FFF7F0FFB8607B681D
:10080C00FB60FB68B3F1FF3F05D00A4B1B781A461F
:10081C00FB681344FB6000BFFFF7E0FF0246BB68B8
:10082C00D31AFA689A42F7D800BF00BF1037BD46FA
:10083C0080BD00BF0800002080B586B000AF786096
:10084C000023FB7500233B610023BB600023FB608E
:10085C007B68002B01D10123BEE07B689B68002BD9
:10086C007B689B6A002B09D17B680022DA627B686B
:10087C00002283F824207868FFF77CFE786800F06B
:10088C00FFFA0346FB757B689B6A03F01003002B91
:10089C0040F09980FB7D002B40F095807B689B6A33
:1008AC0023F4885323F0020343F002027B689A621C
:1008BC007B685A687B68DB691A437B681B7B5B002F
:1008CC001343BA681343BB607B689B68B3F5807FA6
:1008DC0003D07B689B68012B02D14FF4807300E03E
:1008EC0000233A6913433B617B681B7D012B19D1B3
:1008FC007B681B7B002B09D17B689B69013B5A03EE
:10090C003B69134343F400633B610BE07B689B6AD8
:10091C0043F020027B689A627B68DB6A43F0010239
:10092C007B68DA627B681B685B6823F469417B68CF
:10093C001B683A690A435A607B681B689A68284BA3
:10094C0013407A681268B9680B4393607B689B68A4
:10095C00B3F5807F03D07B689B68012B04D17B6847
:10096C001B69013B1B05FB607B681B68DB6A23F47E
:10097C0070017B681B68FA680A43DA627B681B6843
:10098C009A68184B1340BA689A420BD17B680022C4
:10099C00DA627B689B6A23F0030343F001027B68F5
:1009AC009A6218E07B689B6A23F0120343F01002F2
:1009BC007B689A627B68DB6A43F001027B68DA62CF
:1009CC000123FB7507E07B689B6A43F010027B6890
:1009DC009A620123FB75FB7D18461837BD4680BD16
:1009EC00FDF7E1FFFE0E1FFF80B586B000AFF8608B
:1009FC00B9607A600023FB75FB681B68644A9342FC
:100A0C0004D0FB681B68634A934206D1604B5B6859
:100A1C0003F47023002B40F0B380FB6893F8243070
:100A2C00012B01D10223AEE0FB68012283F82420C4
:100A3C00F86800F0CBF90346FB75FB7D002B40F00A
:100A4C009A80FB689B6A23F4706323F0010343F4E0
:100A5C008072FB689A62FB681B684E4A934205D110
:100A6C004B4B5B6803F47023002B15D1FB689B6A1E
:100A7C0023F48012FB689A62FB681B685B6803F4C2
:100A8C008063002B26D0FB689B6A23F4405343F40D
:100A9C008052FB689A621DE0FB689B6A43F48012EB
:100AAC00FB689A62FB681B68394A934204D0FB6866
:100ABC001B68384A93420DD1354B5B6803F4806355
:100ACC00002B07D0FB689B6A23F4405343F48052FD
:100ADC00FB689A62FB689B6A03F48053002B06D078
:100AEC00FB68DB6A23F00602FB68DA6202E0FB6853
:100AFC000022DA62FB68002283F82420FB681B6A60
:100B0C00254A9A62FB681B6A244ADA62FB681B6AF4
:100B1C00234A1A63FB681B686FF002021A60FB68B9
:100B2C001B689A68FB681B6842F480729A60FB68C9
:100B3C00186AFB681B684C331946BA687B6800F06E
:100B4C00AFFBFB681B689B6803F46023B3F5602F55
:100B5C0008D1FB681B689A68FB681B6842F4A0020A
:100B6C009A600FE0FB681B689A68FB681B6842F48C
:100B7C0080129A6006E0FB68002283F8242001E0D2
:100B8C000123FB75FB7D18461837BD4680BD00BFA1
:100B9C0000240140002801400F0F00088B0F0008B3
:100BAC00A70F000880B483B000AF786000BF0C378B
:100BBC00BD4680BC704780B483B000AF786000BF86
:100BCC000C37BD4680BC704780B483B000AF7860F2
:100BDC0000BF0C37BD4680BC7047000080B485B0A8
:100BEC0000AF786039600023FB730023BB607B6827
:100BFC0093F82430012B01D10223DCE07B68012225
:100C0C0083F824203B685B68062B1CD87B681B6828
:100C1C00596B3B685A6813469B001344053B1F22D3
:100C2C0002FA03F3DB4319403B6818683B685A68C7
:100C3C0013469B001344053B00FA03F27B681B68C8
:100C4C000A435A633CE03B685B680C2B1CD87B68FE
:100C5C001B68196B3B685A6813469B001344233B73
:100C6C001F2202FA03F3DB4319403B6818683B6808
:100C7C005A6813469B001344233B00FA03F27B682B
:100C8C001B680A431A631BE07B681B68D96A3B68C4
:100C9C005A6813469B001344413B1F2202FA03F38C
:100CAC00DB4319403B6818683B685A6813469B0045
:100CBC001344413B00FA03F27B681B680A43DA6277
:100CCC003B681B68092B1CD97B681B68D9683B687F
:100CDC001A6813465B0013441E3B072202FA03F307
:100CEC00DB4319403B6898683B681A6813465B0005
:100CFC0013441E3B00FA03F27B681B680A43DA605C
:100D0C0019E07B681B6819693B681A6813465B001D
:100D1C001344072202FA03F3DB4319403B6898683B
:100D2C003B681A6813465B00134400FA03F27B68B5
:100D3C001B680A431A613B681B68102B03D03B6885
:100D4C001B68112B32D17B681B681D4A934225D13D
:100D5C007B681B689B6803F40003002B26D17B681F
:100D6C001B689A687B681B6842F400029A603B68B7
:100D7C001B68102B1AD1134B1B68134AA2FB0323BD
:100D8C009A0C13469B0013445B00BB6002E0BB68EB
:100D9C00013BBB60BB68002BF9D107E07B689B6A09
:100DAC0043F020027B689A620123FB737B6800226C
:100DBC0083F82420FB7B18461437BD4680BC704753
:100DCC00002401400000002083DE1B4380B584B06A
:100DDC0000AF78600023FB600023BB607B681B685E
:100DEC009B6803F00103012B40D07B681B689A6859
:100DFC007B681B6842F001029A601F4B1B681F4AFC
:100E0C00A2FB03239B0CBB6002E0BB68013BBB60F5
:100E1C00BB68002BF9D1FFF7E1FCF8601FE0FFF78E
:100E2C00DDFC0246FB68D31A022B18D97B681B68C1
:100E3C009B6803F00103012B11D07B689B6A43F084
:100E4C0010027B689A627B68DB6A43F001027B6864
:100E5C00DA627B68002283F82420012307E07B6898
:100E6C001B689B6803F00103012BD8D100231846A3
:100E7C001037BD4680BD00BF0000002083DE1B4341
:100E8C0080B584B000AF78600023FB607B681B6882
:100E9C009B6803F00103012B2ED17B681B689A68B9
:100EAC007B681B6822F001029A60FFF797FCF860E0
:100EBC001BE0FFF793FC0246FB68D31A022B14D9F4
:100ECC007B681B689B6803F00103012B0DD17B68C9
:100EDC009B6A43F010027B689A627B68DB6A43F082
:100EEC0001027B68DA62012307E07B681B689B6860
:100EFC0003F00103012BDCD0002318461037BD464C
:100F0C0080BD80B584B000AF78607B685B6AFB60A5
:100F1C00FB689B6A03F05003002B27D1FB689B6A8C
:100F2C0043F40072FB689A62FB681B689B6803F4CD
:100F3C006023B3F5602F15D1FB681B7B002B11D1FF
:100F4C00FB689B6A23F48072FB689A62FB689B6A5D
:100F5C0003F48053002B05D1FB689B6A43F001021C
:100F6C00FB689A62F868FFF71DFE04E0FB681B6AD9
:100F7C001B6B7868984700BF1037BD4680BD80B5A5
:100F8C0084B000AF78607B685B6AFB60F868FFF741
:100F9C0012FE00BF1037BD4680BD80B584B000AFD7
:100FAC0078607B685B6AFB60FB689B6A43F040027D
:100FBC00FB689A62FB68DB6A43F00402FB68DA6246
:100FCC00F868FFF701FE00BF1037BD4680BD00007A
:100FDC0080B485B000AF78607B6803F00703FB60DA
:100FEC000C4BDB68BB60BA684FF6FF031340BB6069
:100FFC00FB681A02BB68134343F0BF6343F400332E
:10100C00BB60044ABB68D36000BF1437BD4680BCCC
:10101C00704700BF00ED00E080B400AF044BDB680C
:10102C001B0A03F007031846BD4680BC704700BF7F
:10103C0000ED00E080B483B000AF0346FB7197F97C
:10104C000730002B0BDBFB7903F01F02064997F9E5
:10105C0007305B09012000FA02F241F8232000BF9F
:10106C000C37BD4680BC704700E100E080B483B013
:10107C0000AF03463960FB7197F90730002B0ADB90
:10108C003B68DAB20C4997F907301201D2B20B4423
:10109C0083F800230AE03B68DAB20849FB7903F0D5
:1010AC000F03043B1201D2B20B441A7600BF0C376B
:1010BC00BD4680BC704700BF00E100E000ED00E0E1
:1010CC0080B489B000AFF860B9607A60FB6803F057
:1010DC000703FB61FB69C3F10703042B28BF04233F
:1010EC00BB61FB690433062B02D9FB69033B00E0AF
:1010FC0000237B614FF0FF32BB6902FA03F3DA4342
:10110C00BB681A407B699A404FF0FF317B6901FA4A
:10111C0003F3D9437B680B40134318462437BD4671
:10112C0080BC704780B582B000AF78607B68013BB3
:10113C00B3F1807F01D301230FE00A4A7B68013BA6
:10114C0053600F214FF0FF30FFF790FF054B00224B
:10115C009A60044B07221A60002318460837BD46D4
:10116C0080BD00BF10E000E080B582B000AF7860B9
:10117C007868FFF72DFF00BF0837BD4680BD80B5EE
:10118C0086B000AF0346B9607A60FB7300237B61C5
:10119C00FFF742FF78617A68B9687869FFF790FFCA
:1011AC00024697F90F3011461846FFF75FFF00BF54
:1011BC001837BD4680BD80B582B000AF0346FB71C9
:1011CC0097F907301846FFF735FF00BF0837BD46C3
:1011DC0080BD80B582B000AF78607868FFF7A2FF61
:1011EC00034618460837BD4680BD000080B485B064
:1011FC0000AF78600023FB607B68002B01D10123DA
:10120C0043E07B681B681A46224B1344224AA2FB1C
:10121C0003231B099A007B681A647B681F4ADA63F4
:10122C007B68022283F821207B681B681B68FB60AB
:10123C00FB6823F47F5323F03003FB607B685A6810
:10124C007B689B681A437B68DB681A437B681B6965
:10125C001A437B685B691A437B689B691A437B68FA
:10126C00DB691343FA681343FB607B681B68FA68FD
:10127C001A607B6800229A637B68012283F8212024
:10128C007B68002283F82020002318461437BD46C3
:10129C0080BC7047F8FFFDBFCDCCCCCC0000024029
:1012AC0080B586B000AFF860B9607A603B6000230F
:1012BC00FB75FB6893F82030012B01D102234BE026
:1012CC00FB68012283F82020FB6893F82130DBB205
:1012DC00012B3AD1FB68022283F82120FB68002203
:1012EC009A63FB681B681A68FB681B6822F0010292
:1012FC001A603B687A68B968F86800F037F9FB68DF
:10130C00DB6A002B08D0FB681B681A68FB681B683B
:10131C0042F00E021A600FE0FB681B681A68FB684B
:10132C001B6822F004021A60FB681B681A68FB68D1
:10133C001B6842F00A021A60FB681B681A68FB689B
:10134C001B6842F001021A6005E0FB68002283F87A
:10135C0020200223FB75FB7D18461837BD4680BD47
:10136C0080B584B000AF78607B68DB6B1B68FB607A
:10137C007B681B681B68BB607B681B6C04229A40F3
:10138C00FB681340002B4FD0BB6803F00403002B09
:10139C004AD07B681B681B6803F02003002B07D125
:1013AC007B681B681A687B681B6822F004021A6051
:1013BC007B681B68664A934229D07B681B68654A28
:1013CC00934222D07B681B68634A93421AD07B6895
:1013DC001B68624A934212D07B681B68604A934236
:1013EC000AD07B681B685F4A934202D14FF480039A
:1013FC000EE04FF080630BE04FF4802308E04FF4D5
:10140C00804305E04FF4806302E0402300E00423B6
:10141C00554A53607B68DB6A002B00F094807B6834
:10142C00DB6A786898478EE07B681B6C02229A40D6
:10143C00FB681340002B56D0BB6803F00203002B53
:10144C0051D07B681B681B6803F02003002B0BD169
:10145C007B681B681A687B681B6822F00A021A609A
:10146C007B68012283F821207B681B68384A9342F1
:10147C0029D07B681B68374A934222D07B681B6853
:10148C00354A93421AD07B681B68344A934212D077
:10149C007B681B68324A93420AD07B681B68314ACE
:1014AC00934202D14FF400130EE04FF000730BE0A7
:1014BC004FF4003308E04FF4005305E04FF4007391
:1014CC0002E0202300E00223274A53607B680022BD
:1014DC0083F820207B689B6A002B34D07B689B6A46
:1014EC00786898472FE07B681B6C08229A40FB6851
:1014FC001340002B28D0BB6803F00803002B23D02B
:10150C007B681B681A687B681B6822F00E021A60E5
:10151C007B681A6C7B68DB6B012101FA02F25A6062
:10152C007B6801229A637B68012283F821207B6807
:10153C00002283F820207B681B6B002B04D07B6877
:10154C001B6B7868984700BF00BF1037BD4680BD45
:10155C00080002401C0002403000024044000240DF
:10156C00580002406C0002400000024080B485B07C
:10157C0000AFF860B9607A603B60FB681A6CFB687E
:10158C00DB6B012101FA02F25A60FB681B683A68B6
:10159C005A60FB685B68102B08D1FB681B687A6883
:1015AC009A60FB681B68BA68DA6007E0FB681B6826
:1015BC00BA689A60FB681B687A68DA6000BF1437F7
:1015CC00BD4680BC7047000080B48BB000AF786023
:1015DC00396000237B6200233B6269E101227B6A54
:1015EC0002FA03F3FB613B681B68FA691340BB61A9
:1015FC00BA69FB699A4240F058813B685B689A4A29
:10160C0093425ED0984A934275D8984A934258D0E8
:10161C00964A93426FD8964A934252D0944A934238
:10162C0069D8944A93424CD0924A934263D8924AD6
:10163C00934246D0904A93425DD8122B2AD8122B53
:10164C0059D801A252F823F0CF160008A9160008A9
:10165C00BB160008FD160008031700080317000846
:10166C0003170008031700080317000803170008E6
:10167C0003170008031700080317000803170008D6
:10168C00031700080317000803170008B116000819
:10169C00C5160008794A934213D02CE03B68DB68EE
:1016AC003B6229E03B68DB6804333B6224E03B6827
:1016BC00DB6808333B621FE03B68DB680C333B6242
:1016CC001AE03B689B68002B02D104233B6213E0B9
:1016DC003B689B68012B05D108233B627B68FA6948
:1016EC001A6109E008233B627B68FA695A6103E0DE
:1016FC0000233B6200E000BFBB69FF2B01D87B6875
:10170C0001E07B6804337B61BB69FF2B02D87B6AE9
:10171C009B0002E07B6A083B9B003B617B691A687B
:10172C000F213B6901FA03F3DB431A40396A3B6929
:10173C0001FA03F31A437B691A603B685B6803F098
:10174C008053002B00F0B1804D4B9B694C4A43F009
:10175C00010393614A4B9B6903F00103BB60BB68B7
:10176C00484A7B6A9B08023352F82330FB607B6A41
:10177C0003F003039B000F2202FA03F3DB43FA6826
:10178C001340FB607B68404A934213D07B683F4A0E
:10179C0093420DD07B683E4A934207D07B683D4A0A
:1017AC00934201D1032306E0042304E0022302E068
:1017BC00012300E000237A6A02F0030292009340B6
:1017CC00FA681343FB602F497B6A9B080233FA6863
:1017DC0041F823203B685B6803F48013002B06D090
:1017EC002D4B9A682C49BB6913438B6006E02A4B3E
:1017FC009A68BB69DB43284913408B603B685B6884
:10180C0003F40013002B06D0234BDA682249BB6982
:10181C001343CB6006E0204BDA68BB69DB431E49FF
:10182C001340CB603B685B6803F40033002B06D09D
:10183C00194B5A681849BB6913434B6006E0164BA9
:10184C005A68BB69DB43144913404B603B685B68C7
:10185C0003F48033002B21D00F4B1A680E49BB695F
:10186C0013430B6021E000BF000032100000311068
:10187C0000002210000021100000121000001110B6
:10188C00001002400000014000080140000C014023
:10189C000010014000140140000401400B4B1A6879
:1018AC00BB69DB43094913400B607B6A01337B62E4
:1018BC003B681A687B6A22FA03F3002B7FF48EAE26
:1018CC0000BF00BF2C37BD4680BC704700040140F0
:1018DC0080B483B000AF78600B467B8013467B707E
:1018EC007B78002B03D07A887B681A6103E07B88B5
:1018FC001A047B681A6100BF0C37BD4680BC704768
:10190C0080B485B000AF78600B467B807B68DB6869
:10191C00FB607A88FB6813401A04FB68D9437B8808
:10192C000B401A437B681A6100BF1437BD4680BC5C
:10193C007047000080B586B000AF78607B68002BE4
:10194C0001D1012372E27B681B6803F00103002BB9
:10195C0000F08780924B5B6803F00C03042B0CD0D7
:10196C008F4B5B6803F00C03082B12D18C4B5B681C
:10197C0003F48033B3F5803F0BD1894B1B6803F420
:10198C000033002B6CD07B685B68002B68D1012383
:10199C004CE27B685B68B3F5803F06D1804B1B68DB
:1019AC007F4A43F4803313602EE07B685B68002B26
:1019BC000CD17B4B1B687A4A23F480331360784B31
:1019CC001B68774A23F4802313601DE07B685B68F7
:1019DC00B3F5A02F0CD1724B1B68714A43F48023D2
:1019EC0013606F4B1B686E4A43F4803313600BE03B
:1019FC006B4B1B686A4A23F480331360684B1B687B
:101A0C00674A23F4802313607B685B68002B13D038
:101A1C00FEF7E4FE386108E0FEF7E0FE02463B69A3
:101A2C00D31A642B01D9032300E25D4B1B6803F42A
:101A3C000033002BF0D014E0FEF7D0FE386108E044
:101A4C00FEF7CCFE02463B69D31A642B01D9032363
:101A5C00ECE1534B1B6803F40033002BF0D100E096
:101A6C0000BF7B681B6803F00203002B63D04C4B58
:101A7C005B6803F00C03002B0BD0494B5B6803F045
:101A8C000C03082B1CD1464B5B6803F48033002BF2
:101A9C0016D1434B1B6803F00203002B05D07B6867
:101AAC001B69012B01D00123C0E13D4B1B6823F0C6
:101ABC00F8027B685B69DB00394913430B603AE041
:101ACC007B681B69002B20D0364B01221A60FEF775
:101ADC0085FE386108E0FEF781FE02463B69D31AA9
:101AEC00022B01D90323A1E12D4B1B6803F0020348
:101AFC00002BF0D02A4B1B6823F0F8027B685B6943
:101B0C00DB00274913430B6015E0264B00221A60BB
:101B1C00FEF764FE386108E0FEF760FE02463B69A2
:101B2C00D31A022B01D9032380E11D4B1B6803F050
:101B3C000203002BF0D17B681B6803F00803002B19
:101B4C003AD07B689B69002B19D0174B01221A6085
:101B5C00FEF744FE386108E0FEF740FE02463B69A2
:101B6C00D31A022B01D9032360E10D4B5B6A03F0FE
:101B7C000203002BF0D0012000F09CFA1CE00A4B71
:101B8C0000221A60FEF72AFE38610FE0FEF726FEEF
:101B9C0002463B69D31A022B08D9032346E100BF46
:101BAC00001002400000424280044242924B5B6AA9
:101BBC0003F00203002BE9D17B681B6803F00403DC
:101BCC00002B00F0A6800023FB758B4BDB6903F028
:101BDC008053002B0DD1884BDB69874A43F080532F
:101BEC00D361854BDB6903F08053BB60BB68012379
:101BFC00FB75824B1B6803F48073002B18D17F4B51
:101C0C001B687E4A43F480731360FEF7E7FD38616E
:101C1C0008E0FEF7E3FD02463B69D31A642B01D9B9
:101C2C00032303E1754B1B6803F48073002BF0D086
:101C3C007B68DB68012B06D16F4B1B6A6E4A43F045
:101C4C00010313622DE07B68DB68002B0CD16A4B1F
:101C5C001B6A694A23F001031362674B1B6A664ACD
:101C6C0023F0040313621CE07B68DB68052B0CD1AA
:101C7C00614B1B6A604A43F0040313625E4B1B6AA0
:101C8C005D4A43F0010313620BE05B4B1B6A5A4A3B
:101C9C0023F001031362584B1B6A574A23F00403C9
:101CAC0013627B68DB68002B15D0FEF797FD38615B
:101CBC000AE0FEF793FD02463B69D31A41F28832E3
:101CCC00934201D90323B1E04B4B1B6A03F002038F
:101CDC00002BEED014E0FEF781FD38610AE0FEF730
:101CEC007DFD02463B69D31A41F28832934201D9F9
:101CFC0003239BE0404B1B6A03F00203002BEED145
:101D0C00FB7D012B05D13C4BDB693B4A23F0805317
:101D1C00D3617B68DB69002B00F08780364B5B68F6
:101D2C0003F00C03082B61D07B68DB69022B46D1D6
:101D3C00334B00221A60FEF751FD386108E0FEF7C4
:101D4C004DFD02463B69D31A022B01D903236DE0EA
:101D5C00294B1B6803F00073002BF0D17B681B6AC6
:101D6C00B3F5803F08D1244B5B6823F400327B68C9
:101D7C009B68214913434B601F4B5B6823F474121F
:101D8C007B68196A7B685B6A0B431B4913434B6086
:101D9C001B4B01221A60FEF721FD386108E0FEF7AB
:101DAC001DFD02463B69D31A022B01D903233DE0EA
:101DBC00114B1B6803F00073002BF0D035E0104B77
:101DCC0000221A60FEF70AFD386108E0FEF706FDF6
:101DDC0002463B69D31A022B01D9032326E0064B9A
:101DEC001B6803F00073002BF0D11EE07B68DB69ED
:101DFC00012B07D1012319E00010024000700040B4
:101E0C00600042420B4B5B68FB60FB6803F4803262
:101E1C007B681B6A9A4206D1FB6803F470127B68DC
:101E2C005B6A9A4201D0012300E000231846183760
:101E3C00BD4680BD0010024080B584B000AF786014
:101E4C0039607B68002B01D10123D0E06A4B1B6801
:101E5C0003F007033A689A4210D9674B1B6823F0CA
:101E6C00070265493B6813430B60634B1B6803F027
:101E7C0007033A689A4201D00123B8E07B681B68DB
:101E8C0003F00203002B20D07B681B6803F00403D3
:101E9C00002B05D0594B5B68584A43F4E063536000
:101EAC007B681B6803F00803002B05D0534B5B6861
:101EBC00524A43F460535360504B5B6823F0F0027A
:101ECC007B689B684D4913434B607B681B6803F030
:101EDC000103002B40D07B685B68012B07D1474B7B
:101EEC001B6803F40033002B15D101237FE07B68C2
:101EFC005B68022B07D1414B1B6803F00073002B6E
:101F0C0009D1012373E03D4B1B6803F00203002B46
:101F1C0001D101236BE0394B5B6823F003027B6832
:101F2C005B68364913434B60FEF758FCF8600AE0D7
:101F3C00FEF754FC0246FB68D31A41F288329342F6
:101F4C0001D9032353E02D4B5B6803F00C027B6833
:101F5C005B689B009A42EBD1274B1B6803F007038D
:101F6C003A689A4210D2244B1B6823F0070222498C
:101F7C003B6813430B60204B1B6803F007033A6864
:101F8C009A4201D0012332E07B681B6803F0040302
:101F9C00002B08D0194B5B6823F4E0627B68DB688C
:101FAC00164913434B607B681B6803F00803002B36
:101FBC0009D0124B5B6823F460527B681B69DB0011
:101FCC000E4913434B6000F021F802460B4B5B6843
:101FDC001B0903F00F030A49CB5C22FA03F3094AED
:101FEC001360094B1B681846FEF7B6FB0023184616
:101FFC001037BD4680BD00BF0020024000100240DB
:10200C00E4300008000000200400002080B487B0F9
:10201C0000AF0023FB600023BB6000237B61002327
:10202C007B6000233B611E4B5B68FB60FB6803F02D
:10203C000C03042B02D0082B03D027E0194B3B6177
:10204C0027E0FB689B0C03F00F03174AD35C7B6003
:10205C00FB6803F48033002B10D0114B5B685B0CD6
:10206C0003F00103114AD35CBB607B680D4A03FB90
:10207C0002F2BB68B2FBF3F37B6104E07B680C4AB1
:10208C0002FB03F37B617B693B6102E0054B3B6127
:10209C0000BF3B6918461C37BD4680BC704700BF6B
:1020AC000010024000127A00F430000804310008DD
:1020BC0000093D0080B485B000AF78600A4B1B6806
:1020CC000A4AA2FB03235B0A7A6802FB03F3FB6058
:1020DC0000BFFB685A1EFA60002BF9D100BF00BF8D
:1020EC001437BD4680BC704700000020D34D6210F1
:1020FC0080B586B000AF786000233B610023FB60A5
:10210C007B681B6803F00103002B7DD00023FB755B
:10211C004F4BDB6903F08053002B0DD14C4BDB692B
:10212C004B4A43F08053D361494BDB6903F0805336
:10213C00BB60BB680123FB75464B1B6803F48073C3
:10214C00002B18D1434B1B68424A43F48073136035
:10215C00FEF744FB386108E0FEF740FB02463B69A2
:10216C00D31A642B01D903236DE03A4B1B6803F49B
:10217C008073002BF0D0364B1B6A03F44073FB606A
:10218C00FB68002B2ED07B685B6803F44073FA6805
:10219C009A4227D02E4B1B6A23F44073FB602E4BC4
:1021AC0001221A602C4B00221A60294AFB68136228
:1021BC00FB6803F00103002B14D0FEF70FFB386112
:1021CC000AE0FEF70BFB02463B69D31A41F2883258
:1021DC00934201D9032336E01D4B1B6A03F0020323
:1021EC00002BEED01A4B1B6A23F440727B685B68A1
:1021FC00174913430B62FB7D012B05D1144BDB6993
:10220C00134A23F08053D3617B681B6803F00203ED
:10221C00002B08D00E4B5B6823F440427B689B6814
:10222C000B4913434B607B681B6803F01003002BB6
:10223C0008D0074B5B6823F480027B68DB68044999
:10224C0013434B60002318461837BD4680BD00BFB2
:10225C0000100240007000404004424280B582B041
:10226C0000AF78607B68002B01D1012341E07B68D3
:10227C0093F83D30DBB2002B06D17B68002283F84B
:10228C003C207868FEF7DEF97B68022283F83D205B
:10229C007B681A687B6804331946104600F0F4F822
:1022AC007B68012283F846207B68012283F83E205C
:1022BC007B68012283F83F207B68012283F8402051
:1022CC007B68012283F841207B68012283F842203D
:1022DC007B68012283F843207B68012283F8442029
:1022EC007B68012283F845207B68012283F83D201E
:1022FC00002318460837BD4680BD80B584B000AFBA
:10230C00786039600023FB737B6893F83C30012BB9
:10231C0001D10223B4E07B68012283F83C207B6866
:10232C00022283F83D207B681B689B68BB60BB68FE
:10233C0023F07703BB60BB6823F47F43BB607B68EF
:10234C001B68BA689A603B681B68B3F5005F3ED0A7
:10235C00B3F5005F00F28780B3F5805F00F08680F4
:10236C00B3F5805F7FD8702B1AD0702B7BD8602B85
:10237C0050D0602B77D8502B3CD0502B73D8402B9F
:10238C0058D0402B6FD8302B64D0302B6BD8202BEF
:10239C0060D0202B67D8002B5CD0102B5AD062E079
:1023AC007B6818683B6899683B685A683B68DB68CF
:1023BC0000F04FF97B681B689B68BB60BB6843F0FF
:1023CC007703BB607B681B68BA689A604FE07B68D8
:1023DC0018683B6899683B685A683B68DB6800F092
:1023EC0038F97B681B689A687B681B6842F48042EA
:1023FC009A603CE07B6818683B6859683B68DB680E
:10240C001A4600F0AFF87B681B685021184600F0A4
:10241C0006F92CE07B6818683B6859683B68DB68F8
:10242C001A4600F0CDF87B681B686021184600F056
:10243C00F6F81CE07B6818683B6859683B68DB68F9
:10244C001A4600F08FF87B681B684021184600F094
:10245C00E6F80CE07B681A683B681B681946104666
:10246C0000F0DDF803E00123FB7300E000BF7B68A4
:10247C00012283F83D207B68002283F83C20FB7B03
:10248C0018461037BD4680BD80B485B000AF78606B
:10249C0039607B681B68FB607B682F4A93420BD0CA
:1024AC007B68B3F1804F07D07B682C4A934203D0F2
:1024BC007B682B4A934208D1FB6823F07003FB60C6
:1024CC003B685B68FA681343FB607B68224A934263
:1024DC000BD07B68B3F1804F07D07B681F4A9342C7
:1024EC0003D07B681E4A934208D1FB6823F44073E7
:1024FC00FB603B68DB68FA681343FB60FB6823F006
:10250C0080023B685B691343FB607B68FA681A6066
:10251C003B689A687B68DA623B681A687B689A62E7
:10252C007B680D4A934203D13B681A697B681A6336
:10253C007B6801225A617B681B6903F00103002B45
:10254C0005D07B681B6923F001027B681A6100BF10
:10255C001437BD4680BC7047002C0140000400407D
:10256C000008004080B487B000AFF860B9607A60B2
:10257C00FB681B6A7B61FB681B6A23F00102FB682A
:10258C001A62FB689B693B613B6923F0F0033B617A
:10259C007B681B013A6913433B617B6923F00A0397
:1025AC007B617A69BB6813437B61FB683A699A610A
:1025BC00FB687A691A6200BF1C37BD4680BC704745
:1025CC0080B487B000AFF860B9607A60FB681B6AB2
:1025DC007B61FB681B6A23F01002FB681A62FB68C4
:1025EC009B693B613B6923F470433B617B681B0334
:1025FC003A6913433B617B6923F0A0037B61BB68A1
:10260C001B017A6913437B61FB683A699A61FB6829
:10261C007A691A6200BF1C37BD4680BC704780B413
:10262C0085B000AF786039607B689B68FB60FB68A5
:10263C0023F07003FB603A68FB68134343F0070315
:10264C00FB607B68FA689A6000BF1437BD4680BC9B
:10265C00704780B487B000AFF860B9607A603B60B7
:10266C00FB689B687B617B6923F47F437B613B68E0
:10267C001A027B681A43BB6813437A6913437B6164
:10268C00FB687A699A6000BF1C37BD4680BC7047F6
:10269C0080B485B000AF786039607B6893F83C30CB
:1026AC00012B01D1022346E07B68012283F83C20F8
:1026BC007B68022283F83D207B681B685B68FB60AB
:1026CC007B681B689B68BB60FB6823F07003FB6036
:1026DC003B681B68FA681343FB607B681B68FA68ED
:1026EC005A607B681B68164A93420ED07B681B6845
:1026FC00B3F1804F09D07B681B68124A934204D017
:10270C007B681B68104A93420CD1BB6823F0800392
:10271C00BB603B685B68BA681343BB607B681B6833
:10272C00BA689A607B68012283F83D207B6800229E
:10273C0083F83C20002318461437BD4680BC7047F4
:10274C00002C0140000400400008004080B582B01D
:10275C0000AF786000F02FF802460B467B685A6099
:10276C0000BF0837BD4680BDB0B584B000AF7860FF
:10277C0000F021F802460B467B685B68D31AFB60BD
:10278C007B681B68FA689A420BDA7B685B68DA171D
:10279C001C46154600F00FF802460B46A242AB4110
:1027AC0001DA002303E07B681A68FB68D31A184629
:1027BC001037BD46B0BDB0B500AFFEF70FF80346FD
:1027CC0000221C46154622462B4610461946B0BD23
:1027DC0080B500AF00F006FA034642F6E062934281
:1027EC0005D80A4B1B680133084A136005E0084BF7
:1027FC0000221A70054B00221A60044B1B68322B06
:10280C0002D9034B01221A7000BF80BDFC000020CE
:10281C00F100002080B500AF00F0E4F90346B3F5F9
:10282C007A5F05D30A4B1B680133094A136005E034
:10283C00084B00221A70064B00221A60044B1B68CE
:10284C00322B02D9034B01221A7000BF80BD00BF8E
:10285C0000010020F200002080B500AF00F0E4F988
:10286C00034643F68C42934205D80A4B1B6801334E
:10287C00084A136005E0084B00221A70054B002231
:10288C001A60044B1B68322B02D9034B01221A70BD
:10289C0000BF80BD04010020F300002080B500AF14
:1028AC0000F0E8F9034640F66D72934205D90A4BE5
:1028BC001B680133084A136005E0074B00221A60BD
:1028CC00064B00221A70044B1B68322B02D9034BA7
:1028DC0001221A7000BF80BD08010020F400002006
:1028EC0080B582B000AF00F07DF978607B6842F66D
:1028FC00EC42934204D97B6843F64772934205D964
:10290C00114B1B680133104A136008E00E4B002278
:10291C001A600E4B00221A700D4B00221A700A4BD3
:10292C001B68322B0BD97B6842F6EC42934203D8DE
:10293C00064B01221A7002E0054B01221A7000BFEF
:10294C000837BD4680BD00BF0C010020F6000020FA
:10295C00F500002080B582B000AF00F0ABF97860D4
:10296C007B6842F6E062934204D97B6844F61F62AE
:10297C00934205D9114B1B680133104A136008E0D0
:10298C000E4B00221A600E4B00221A700D4B0022C7
:10299C001A700A4B1B68322B0BD97B6842F6E0622B
:1029AC00934203D8064B01221A7002E0054B012218
:1029BC001A7000BF0837BD4680BD00BF1001002053
:1029CC00F8000020F700002080B500AF1D4B1B78ED
:1029DC00002B08D000F0E8FA642000F0A9FA1A4B9A
:1029EC0001221A702BE0174B1B78002B27D0164BAB
:1029FC001B78002B13D0144B1B78022B0FD0134BCE
:102A0C001B78002B0BD0114B00221A700E4B00229E
:102A1C001A7000F0C9FA322000F08AFA0FE00A4B63
:102A2C0002221A7000F0E0FA002000F081FA012175
:102A3C000E2000F0A7F90121042000F0A3F900BF3B
:102A4C0080BD00BFF1000020F00000200900002034
:102A5C0080B500AF104B1B78002B14D00F4B1B789C
:102A6C00002B06D0002000F03BFA012000F04CFABD
:102A7C000FE0012000F034FA002000F045FA642049
:102A8C0000F056FA05E0012000F02AFA002000F0D0
:102A9C003BFA00BF80BD00BFF4000020F300002013
:102AAC0080B582B000AF0023FB711C4B1B78002B50
:102ABC0007D00123FB71002000F012FA002000F077
:102ACC0023FA174B1B78002B07D00123FB71002036
:102ADC0000F006FA002000F017FA124B1B78002BBE
:102AEC0007D00123FB71012000F0FAF9002000F05F
:102AFC000BFA0D4B1B78002B07D00123FB71012027
:102B0C0000F0EEF9002000F0FFF9FB7919460420E3
:102B1C0000F038F900BF0837BD4680BDF500002035
:102B2C00F7000020F6000020F800002080B582B0ED
:102B3C0000AF00F049F800F018F94FF4FA70FDF707
:102B4C0057FE0A233B6000237B603B461846FFF789
:102B5C000BFE0346002B0FD1FFF73AFEFFF75AFE90
:102B6C00FFF77AFEFFF79AFEFFF7BAFEFFF7F2FEC9
:102B7C003B461846FFF7EAFDFFF726FFFFF768FF15
:102B8C00FFF78EFF00F04AFADFE7000080B500AFD8
:102B9C00FDF712FE094B1A68094BA3FB02135B09E4
:102BAC004FF4FA7101FB03F3D31A002B04D14FF449
:102BBC0000510448FEF7A4FE00BF80BDEC000020CD
:102BCC00D34D62100010014080B500AF04220349C0
:102BDC000348FDF709FF0023184680BD14010020AF
:102BEC003000002080B483B000AF0C4B1B6840F663
:102BFC00E44203FB02F20A4BA3FB0213D21A520863
:102C0C001344DB0A7B607B689B01064AA2FB03230F
:102C1C00DB0818460C37BD4680BC704714010020F9
:102C2C0001011000CDCCCCCC80B483B000AF0E4BE6
:102C3C005B6840F6E44203FB02F20C4BA3FB02136D
:102C4C00D21A52081344DB0A7B607A6813465B0184
:102C5C009B1A5B001A46064BA3FB0223DB081846A3
:102C6C000C37BD4680BC70471401002001011000D8
:102C7C00CDCCCCCC80B483B000AF0C4B9B6840F671
:102C8C00E44203FB02F20A4BA3FB0213D21A5208D2
:102C9C001344DB0A7B607B68652202FB03F39B0910
:102CAC0018460C37BD4680BC704700BF140100208D
:102CBC000101100080B483B000AF0E4B9B6840F64E
:102CCC00E44203FB02F20C4BA3FB0213D21A520890
:102CDC001344DB0A7B607A6813461B019B1A9B002A
:102CEC009B1A064AA2FB0323DB0818460C37BD4689
:102CFC0080BC70471401002001011000CDCCCCCC5D
:102D0C0080B582B000AF7860FFF755FD02460B46E8
:102D1C007B685A6000BF0837BD4680BDB0B584B033
:102D2C0000AF7860FFF747FD02460B467B685B6897
:102D3C00D31AFB607B681B68FA689A420BDA7B68D3
:102D4C005B68DA171C461546FFF735FD02460B4645
:102D5C00A242AB4101DA002303E07B681A68FB68EE
:102D6C00D31A18461037BD46B0BD80B500AF01214F
:102D7C00022000F007F80121032000F003F80023E3
:102D8C00184680BD80B582B000AF03460A46FB7181
:102D9C001346BB71FB790E2B00F2958001A252F801
:102DAC0023F000BFED2D0008FD2D00080D2E0008AE
:102DBC001D2E00082D2E00083D2E00084D2E00085B
:102DCC005D2E00086D2E00087D2E00089B2E00083D
:102DDC00A92E0008B72E0008C52E00088D2E00085D
:102DEC00BB791A464FF480713B48FEF771FD6DE0DC
:102DFC00BB791A464FF400713748FEF769FD65E060
:102E0C00BB791A464FF480613348FEF761FD5DE0F3
:102E1C00BB791A464FF400612F48FEF759FD55E077
:102E2C00BB791A464FF400712C48FEF751FD4DE06A
:102E3C00BB791A464FF480612848FEF749FD45E0FE
:102E4C00BB791A464FF400612448FEF741FD3DE082
:102E5C00BB791A464FF480512048FEF739FD35E016
:102E6C00BB791A464FF400511C48FEF731FD2DE09A
:102E7C00BB791A464FF480411848FEF729FD25E02E
:102E8C00BB791A4640211548FEF722FD1EE0BB799E
:102E9C001A4602211148FEF71BFD17E0BB791A46B2
:102EAC0010210E48FEF714FD10E0BB791A462021C4
:102EBC000A48FEF70DFD09E0BB791A4608210748C0
:102ECC00FEF706FD02E04FF0FF3300E0002318464A
:102EDC000837BD4680BD00BF00080140000C014012
:102EEC0080B582B000AF0346FB71FB791946012017
:102EFC00FFF748FFFB7919460820FFF743FF002333
:102F0C0018460837BD4680BD80B582B000AF034679
:102F1C00FB71FB7919460020FFF734FFFB7919464A
:102F2C000920FFF72FFF002318460837BD4680BD48
:102F3C0080B582B000AF0346FB71FB79642B20D0C7
:102F4C00642B2BDC002B02D0322B0DD026E0002181
:102F5C000520FFF717FF00210620FFF713FF0121C3
:102F6C000720FFF70FFF1AE000210520FFF70AFFEB
:102F7C0001210620FFF706FF01210720FFF702FFC2
:102F8C000DE001210520FFF7FDFE01210620FFF7D2
:102F9C00F9FE01210720FFF7F5FE00E000BF00233A
:102FAC0018460837BD4680BD80B500AF00210A2009
:102FBC00FFF7E8FE01210B20FFF7E4FE01210D20B5
:102FCC00FFF7E0FE01210C20FFF7DCFE0448FFF7C1
:102FDC0097FE044B01221A700023184680BD00BFD7
:102FEC000C0000202401002080B500AF01210A2034
:102FFC00FFF7C8FE00210B20FFF7C4FE01210D20B6
:10300C00FFF7C0FE01210C20FFF7BCFE024B012292
:10301C001A700023184680BD2401002080B500AF33
:10302C000F4B1B78002B18D00E48FFF777FE03468A
:10303C00002B12D100210C20FFF7A4FE00210A2046
:10304C00FFF7A0FE00210B20FFF79CFE00210D20B6
:10305C00FFF798FE024B00221A700023184680BD21
:10306C00240100200C00002003460244934200D1AE
:10307C00704703F8011BF9E770B500260C4D0D4C99
:10308C00641BA410A64209D100F01AF800260A4DC0
:10309C000A4C641BA410A64205D170BD55F8043B24
:1030AC0098470136EEE755F8043B98470136F2E7AE
:1030BC000831000808310008083100080C310008FC
:1030CC00F8B500BFF8BC08BC9E467047F8B500BF09
:0830DC00F8BC08BC9E467047D9
:1030E40000000000000000000102030406070809B4
:1030F40002030405060708090A0B0C0D0E0F101035
:0431040001020000C4
:043108003101000889
:04310C000D010008A9
:1031100000127A001000000001010000F40100001C
:0431200000000000AB
:04000005080006EDFC
:00000001FF
